:020000040800F2
:1000000000000320810500087D1E00087F1E0008F7
:10001000811E0008831E0008851E000800000000E5
:10002000000000000000000000000000A1770008B0
:10003000871E000800000000317800085570000895
:10004000D1050008D1050008D1050008D105000838
:10005000D1050008D1050008D1050008D105000828
:10006000D1050008D1050008D1050008D105000818
:10007000D1050008D1050008D1050008D105000808
:10008000D1050008D1050008D1050008D1050008F8
:10009000D1050008D1050008D1050008D1050008E8
:1000A000D1050008D1050008D1050008D1050008D8
:1000B000D1050008D1050008D1050008D1050008C8
:1000C000D1050008D1050008D1050008D1050008B8
:1000D000D1050008D1050008D1050008D1050008A8
:1000E000D1050008D1050008D1050008D105000898
:1000F000D1050008D1050008D1050008D105000888
:10010000D1050008D1050008D1050008D105000877
:10011000D1050008D1050008891E0008D105000896
:10012000D1050008D1050008D1050008D105000857
:10013000D1050008D1050008D1050008D105000847
:10014000D1050008D1050008D1050008D105000837
:10015000D1050008D1050008D1050008D105000827
:10016000D1050008D1050008D1050008D105000817
:10017000D1050008D1050008D105000800000000E5
:10018000D1050008D1050008D1050008D1050008F7
:10019000D1050008D1050008D1050008D1050008E7
:0C01A000951E0008D1050008A11E0008F3
:1001B00010B5054C237833B9044B13B10448AFF3A1
:1001C00000800123237010BD6C010020000000009E
:1001D000ACC8010808B5034B1BB103490348AFF392
:1001E000008008BD0000000070010020ACC80108BC
:1001F00001F0FF01102A2BDB10F0070F08D010F8D8
:10020000013B013A8B422DD010F0070F42B3F6D1DB
:10021000F0B441EA012141EA014122F007047FF0F4
:1002200000070023F0E80256083C85EA010586EA4B
:10023000010685FA47F5A3FA87F586FA47F6A5FA87
:1002400087F68EB9EED1F0BC01F0FF0102F0070293
:1002500032B110F8013B013A83EA010313B1F8D13E
:100260000020704701387047002D06BF354603381F
:10027000073815F0010F07D1013015F4807F02BF58
:10028000013015F4C03F0130F0BC0138704700BFA9
:1002900053B94AB9002908BF00281CBF4FF0FF31ED
:1002A0004FF0FF3000F06AB9ADF1080C6DE904CEF3
:1002B00000F006F8DDF804E0DDE9022304B0704741
:1002C0002DE9F047089D0C46002B4ED194468C45F5
:1002D0008646B2FA82F262D94AB1C2F12003914055
:1002E00020FA03F30CFA02FC194300FA02FE4FEA6B
:1002F0001C471FFA8CF6B1FBF7F44FEA1E4307FBCD
:10030000141143EA014304FB06F199420AD91CEB9C
:10031000030304F1FF3080F01281994240F20F8113
:10032000023C6344591A1FFA8EF3B1FBF7F007FB46
:10033000101143EA014300FB06F69E420AD91CEB6A
:10034000030300F1FF3180F0FC809E4240F2F9800F
:10035000634402389B1B40EA044000211DB1D34096
:100360000022C5E90032BDE8F0878B4205D90DB106
:10037000C5E9000100210846F5E7B3FA83F1002939
:1003800046D1A34202D39042C0F0F080861A64EBBB
:1003900003030120002DE6D0C5E90063E3E7002A4E
:1003A00040F09080A1EB0C044FEA1C481FFA8CF738
:1003B0000121B4FBF8F64FEA1E4308FB164443EA5A
:1003C000044307FB06F0984208D91CEB030306F12F
:1003D000FF3402D2984200F2CD8026461C1A1FFA42
:1003E0008EF3B4FBF8F008FB104443EA044300FB2F
:1003F00007F79F4208D91CEB030300F1FF3402D238
:100400009F4200F2B0802046DB1B40EA0640A5E791
:10041000C1F120068B4022FA06F71F4320FA06FCA2
:1004200004FA01F343EA0C03F44000FA01F8380C33
:100430004FEA1349B4FBF0FE1FFA87FC00FB1E4491
:1004400049EA04440EFB0CF9A14502FA01F20AD96B
:100450003C190EF1FF3A80F08480A14540F2818082
:10046000AEF1020E3C44A4EB09041FFA83F9B4FB7D
:10047000F0F300FB134449EA044403FB0CFCA445DD
:1004800007D93C1903F1FF3067D2A44565D9023B77
:100490003C4443EA0E40A0FB0293A4EB0C049C42B4
:1004A000CE469C4651D34ED055B1B8EB0E0364EB0B
:1004B0000C0404FA06F6CB401E43CC40C5E90064A8
:1004C000002150E7C2F1200320FA03F10CFA02FCEC
:1004D00024FA03F394400C434FEA1C4800FA02FE4E
:1004E0001FFA8CF7B3FBF8F008FB1031230C43EA3A
:1004F000014300FB07F1994208D91CEB030300F10B
:10050000FF362CD299422AD9023863445B1AA4B22E
:10051000B3FBF8F108FB113344EA034401FB07F392
:10052000A34208D91CEB040401F1FF3613D2A34205
:1005300011D902396444E41A41EA004139E704461A
:10054000F0E6084606E7C845AED2B9EB020E63EB0B
:10055000070C0138A8E73146EDE7034699E7304636
:10056000D4E7D6467FE7634402384DE70646234684
:1005700008460FE7023E634430E700BF704700BF04
:10058000DFF834D0002103E00C4B5B5843500431BA
:100590000B480C4B42189A42F6D30B4A02E0002358
:1005A00042F8043B094B9A42F9D304F037FB1BF0A5
:1005B0000DFC00F021FF7047000003200419130810
:1005C000000000206C0100206C010020304401205C
:1005D000FEE700F0B9BC00F02BBD704710B5042158
:1005E00004461BF015F9204610BD000038B50C4B31
:1005F0000C4C18800C4B822019806368984740F699
:10060000110398420AD1094D23682C608220984733
:100610002B688220DB689847002038BD0120FCE76A
:10062000920100205400002090010020940100203D
:100630004FF4A071F020FFF7D9BF0000F7B5334D9C
:100640002B6804461B6982209847208000284AD0E6
:100650002B680DF106025B6901A982209847BDF85D
:10066000063040F6746293423FD9ADF80620BDF8DB
:100670000630D21A92B20A2A3DD90B23B2FBF3F20A
:10068000234B1B889A4201D9013B9AB2BDF8043032
:1006900040F6B8318B4230D8C3F571630E339BB24C
:1006A0000F21B3FBF1F31B4909888B4201D90139B2
:1006B0008BB2194E194D30682F68834281B28CBFBE
:1006C000591AC91AB8B2BA428CBF101A801A89B224
:1006D00080B201440529C8BF33603368C8BF2A60AF
:1006E00063802B68A38003B0F0BDB32B9CBFB42301
:1006F000ADF80630BBE70022C8E7C3F56D630833E9
:100700009BB20E2BCCD80023D3E700BF940100206E
:1007100090010020920100208C010020880100201F
:1007200037B568460D461446FFF788FFBDF8000050
:1007300030B1BDF802302B60BDF8043023600120D9
:1007400003B030BD032821D8DFE800F0020B1219F6
:100750000F4B1A68B2FA82F2520904210D4804F0D4
:10076000F3BC0B4B5A68B2FA82F252090821F5E742
:10077000074B9A68B2FA82F252091021EEE7044B55
:10078000DA68B2FA82F252092021E7E7704700BF27
:100790009801002000100240032821D8DFE800F073
:1007A000020B12190F4B1A68003A18BF01220421DC
:1007B0000D4804F0C9BC0B4B5A68003A18BF01221F
:1007C0000821F5E7074B9A68003A18BF012210216B
:1007D000EEE7044BDA68003A18BF01222021E7E770
:1007E000704700BF980100200010024003280DD878
:1007F000DFE800F00206080A0421054804F0A9BC5D
:100800000821FAE71021F8E72021F6E7704700BF3A
:100810000010024008B5032811D8DFE800F0020AF2
:100820000C0E0421074804F089FC431E584258412D
:1008300008BD0821F6E71021F4E72021F2E70020A7
:10084000F3E700BF0010024070B5084D00240126F8
:10085000E0B2FFF7DFFF18B12B68012B18BF2E6045
:100860000134052C05F10405F2D170BD980100207A
:10087000012380F8781080F87930704700207047A5
:10088000034B4164003918BF01211970704700BF44
:10089000FF37012000207047836B0BB108461847D3
:1008A00070474FF6FF707047406803689B691847B0
:1008B000704770477047000070B5044600F058FC60
:1008C0002368D3F88850044BD4E90F122046AC4675
:1008D000BDE87040604700BF000000D008B5036865
:1008E0000446D3F880309847236820469B6F98478A
:1008F00000F0ECF8236820461B6F9847292000F091
:10090000EFFF00F0E3F8236820461B6F9847F8E7F5
:1009100010B5044609F0BAFD23682046D3F8AC3080
:10092000BDE81040184700F015BC00F019BC00F0FD
:1009300045BC00F0EBBB00F045BC00F04DBC00F046
:10094000EFBB09F00FB810B57C2104461AF060FF28
:10095000204610BD10B590F8341090F878400C4B3C
:100960008C421A7809D03AB90A4A0B491488088887
:1009700010800C8001221A7010BD002AFCD0054A9C
:1009800005491488088810800C800022F3E700BF16
:10099000F8370120F4370120F637012070B50D46F5
:1009A000194635B9094B0A4A0A4840F2D2211AF0D1
:1009B0005DFFC0E90F52084B003A18BF01221A70C0
:1009C0000368BDE87040D3F88C3018471CC9010893
:1009D00054C90108A2C90108FE37012008B5094B16
:1009E0001B888B4203D8084B1B88934205D9074BC1
:1009F000074A08489E211AF039FF074B1980074B18
:100A00001A8008BDF4370120F6370120E7C9010834
:100A10004ACA0108A2C90108FA370120FC3701209F
:100A2000034690F87A0018B1586803681B681847A5
:100A300070470000012108B50022084606F0AFFB10
:100A40000A4B186028B90A4B0A4A28210A481AF0AA
:100A50000DFF00220421012006F049FC074B18601D
:100A600018B9074B034A2C21F0E708BDAC01002060
:100A700068CB0108B1CB0108E0CB0108A801002038
:100A80002BCC0108024B4FF0FF31186806F0D1BBA8
:100A9000AC010020014B186806F0F7BBAC01002048
:100AA000024B0021186806F0C4BB00BFAC01002057
:100AB000FFF7F0BF03480449006800231A4606F018
:100AC00051BC00BFA80100200400002013B5084C51
:100AD00000231A4601A9206806F075FC20684FF033
:100AE000FF33002201A906F06EFC02B010BD00BF6A
:100AF000A801002003685B6C184701207047036859
:100B00009B6A184782B0002301930D4B1A6B42F485
:100B100000021A631A6B02F400020192019A1A6928
:100B200042F400021A611A6922F400021A61054BAC
:100B3000054A1A61054B4FF080629A6002B0704717
:100B400000380240F8240020DD0D000800E100E03C
:100B500040F2EF3070470000054B0360054B4FF04B
:100B60008062C3F88820BFF34F8FBFF36F8F704749
:100B7000C8CD010800E100E010B504464FF45A6109
:100B8000FFF7EAFF20461AF043FE204610BD0000A2
:100B900008B50A2809D8DFE800F006100E08080892
:100BA000081010101000022008BD054B054A064829
:100BB00087211AF05BFE0020F6E70120F4E700BF72
:100BC0006DCC010888CC0108D3CC010838B50C469F
:100BD000887FFFF7DDFFA58AE28A164B21695863FB
:100BE00042EA05425A64628BD963521B1A64256833
:100BF000082D0ED19A611A615862207F0E4A42EA8E
:100C00000062DA61E2681A620C4A5961D9601A60BE
:100C100038BD0022D8611A61E1680A0A480902F465
:100C2000784200F4FC600243C1F3C4010A439A63B2
:100C3000034AECE700B00240090001000102020093
:100C40000102030008B50B280BD8DFE800F00612FC
:100C5000100A0A0A0A0808080808022008BD052028
:100C6000FCE7054B054A064866211AF0FFFD002007
:100C7000F4E70120F2E700BF6DCC01081CCD0108AC
:100C8000D3CC01082DE9F04191F81D800C46404677
:100C9000FFF7D8FFA77F05463846FFF7D3FF064684
:100CA0003846FFF775FFA18A628B444B521A1A64CB
:100CB0009A61228B521A1A61E28A586342EA01420F
:100CC0005A6421696268D963DA602068802828D074
:100CD000227F0FD8202867D0402865D004281AD05A
:100CE000364B45EA026545F40035B845DD6161D013
:100CF000334A44E0B0F5807F04D0B0F5007FEFD1F7
:100D0000304800E0304840EA0262DA61E2681A6284
:100D10005E62596132E045EA026242F40032DA6111
:100D2000F6E7A068021DDA62227F45EA026545F413
:100D30000035DD615E625961017841B1012921D040
:100D4000224B234A234840F211111AF08FFDDA6931
:100D5000418822F47F42013922F0100242EA012246
:100D6000DA610121154BDA6942F02002DA61DA69B1
:100D70009206FCD410229A600029B9D0164A1A6053
:100D8000BDE8F081B2F1FF01DA69408822F47F42C8
:100D900000F1FF3022F0100242EA002242F010027D
:100DA00018BF0121DA61DDE745EA0262034B42F434
:100DB0000032B4E740F20122E1E700BF00B0024098
:100DC00001020100090002000A00020066CD0108CC
:100DD00080CD0108D3CC010801020200024B1B6840
:100DE000586803685B6918470038012070B50446ED
:100DF00025460A4B0C30002660602672667245F864
:100E0000203B6022294609F07FFC04F55A63EE601E
:100E100024359D42FBD1204670BD00BFC8CD0108DE
:100E2000012070474020704700EB81100830704768
:100E300000EB8110083070470120704741F210101C
:100E4000704741F2101303FB01000830704741F274
:100E5000101303FB01000830704701207047102079
:100E6000704700EB01100830704700EB01100830AC
:100E70007047084601F034BA10B5034B03600446CE
:100E800008F0C5FA204610BD80CE010810B5044612
:100E9000FFF7F2FF204648211AF0BAFC204610BDA9
:100EA00010B5034B0360044608F0B1FA204610BDAC
:100EB0004CCE010810B50446FFF7F2FF204641F280
:100EC00018111AF0A5FC204610BD000010B5034B08
:100ED0000360044608F09BFA204610BD18CE0108B6
:100EE00010B50446FFF7F2FF204618211AF090FCD7
:100EF000204610BD10B5094B0360044600F58A502A
:100F00000430FFF7B9FF04F12C00FFF7C9FF04F12B
:100F10001400FFF7DBFF204610BD00BFB4CE010870
:100F200008B50248FFF7E6FF08BD00BF60100020CB
:100F300010B50446FFF7DEFF204641F2EC211AF01F
:100F400067FC204610BD00002DE9F34101F00AF8CE
:100F5000054601F00BF800240146234628462246A8
:100F600000940CF0C1FF264B264A274D1A602046FC
:100F700002F0BCFA25480CF01FFF2B68BFF35B8F13
:100F8000DB0736D428461AF045FC90B3204C214F9D
:100F9000214B236007F14C0604F1140004F12C08E6
:100FA0006060C4F80880E760266108F031FA1B4BE6
:100FB0006361404608F02CFA194BE362384608F0AA
:100FC00027FA04F5805303F5C670164AC3F8442186
:100FD00002F0D6FF224607F14801304602F0DCFA63
:100FE000304601F07DF910481AF05EFC28461AF0F0
:100FF0001DFC0E4802B0BDE8F041FFF75DBC00BF2C
:101000005C3801202C0200205C1000200800002029
:1010100060100020A4210020B4CE010818CE0108E1
:101020004CCE010880CE0108210F0008B00100203D
:101030000148FFF753BC00BFB001002070B5224E3D
:10104000224C234D234B23603046FFF7CFFE28462A
:1010500011F01CFA204B2148DC6000224FF4807113
:10106000C3E912121E491A86C3E91A121D4999676B
:101070001D4983F858200B60F02101801B485A66F7
:1010800001801B4883F870204FF4A071C3E904224B
:10109000C3E90622C3E90822C3E90A22C3E90E22F2
:1010A000C3E91022C3E91422C3E917225A67C3E92E
:1010B000016501800F4801800F490A70012283F801
:1010C00034200E4A1A6070BDB8020020581000206B
:1010D000300200200CC90108B0010020F4370120C3
:1010E000010000010000010100380120FA37012051
:1010F000F6370120FC370120F837012098CA010893
:101100000148FFF729BD00BFB8020020034B902221
:1011100083F85A2383F85823704700BF00E100E0AA
:10112000094A0A49D3680A48C3F30A03013B9BB240
:101130000B801169C1F30A01013901801364536BFB
:1011400043F0010353637047006801404E230020C1
:101150004C230020014BD3F8AC00704700680140DD
:10116000024B0122C3F8AC105A627047006801407C
:1011700070B5044608F04BFC23685D6E0BF04CF82C
:1011800001462046A8472368054AD3F888502046E0
:10119000AC460023BDE87040A2F51631604700BFA1
:1011A00000B004D008F01ABC90F84B3013B1024BD9
:1011B00001221A7008F01EBC5023002008F0D8BB92
:1011C00008F039BD034B4FF080629A604FF0807297
:1011D0009A60704700E100E0084B4FF08062C3F86E
:1011E0008820BFF34F8FBFF36F8F4FF08072C3F82B
:1011F0008820BFF34F8FBFF36F8F704700E100E08F
:1012000010B5144C236823B3134B144A1B6C11887C
:101210008B4213D1124B198804F080FD226892F89A
:101220006A30013382F86A30FFF744FC206809F025
:101230002DF9BDE810400020FFF784BA04F06EFDE0
:10124000206803681B6A9847BDE810400020FFF73C
:10125000A3BA10BD00380120006801404E230020D1
:101260004C23002007B5064BADF806001B68054867
:1012700001220DF1060105F09FFA03B05DF804FBB1
:101280000C000020A4230020F7B5304E304C30680D
:1012900006F0C9F8054678B90421204603F04EFF50
:1012A000002814BF4E2352238DF804303068642385
:1012B0002A4601A906F056F8264F386806F0B3F81A
:1012C00008210546204603F039FF024658B9002D93
:1012D00014BF4E234C238DF80530386864230DF17C
:1012E000050106F03FF81C4F386806F09CF80546EB
:1012F00080B91021204603F021FF002814BF4E239F
:1013000055238DF80630386864232A460DF106010E
:1013100006F028F8114F386806F085F8054680B9C0
:101320002021204603F00AFF002814BF4E23442347
:101330008DF80730386864232A460DF1070106F05E
:1013400011F8642005F01FFFA1E700BF642300200F
:1013500000100240602300205C230020582300205E
:1013600030B595B0102200210AA81AF086FC14228C
:10137000002103A81AF081FC00241D4B01941A6C73
:1013800042F080521A641B6C03F080530193019B5E
:10139000184B02941A6842F440421A601B6803F426
:1013A000404302930122029B4FF48033CDE908238E
:1013B00002254FF48003CDE90E5308214FF4A873A2
:1013C000CDE9101308A804231393129504F0C4FC6C
:1013D0000F23CDE903354FF4A0504FF48053CDE9EE
:1013E0000603052103A8059404F092FE15B030BD54
:1013F000003802400070004080B59AB003F01CFC39
:10140000FFF7AEFF142200210DA800241AF035FCCE
:10141000C44B00941A6BC44842F010021A631A6B52
:1014200002F010020092009A01941A6B42F020021E
:101430001A631A6B02F020020192019A02941A6B4D
:1014400042F080021A631A6B02F080020292029A42
:1014500003941A6B42F004021A631A6B02F004023E
:101460000392039A04941A6B42F001021A631A6BF6
:1014700002F001020492049A05941A6B42F00202EF
:101480001A631A6B02F002020592059A06941A6B0F
:1014900042F040021A631A6B02F040020692069A6A
:1014A00007941A6B42F008021A631B6B03F00803DF
:1014B000079322463C21079B03F046FE9B482246A9
:1014C000042103F041FE224699484FF44051012582
:1014D00003F03AFE4FF003083C269348CDF84080D5
:1014E0000DA902274FF0040ACDE90D650F9403F012
:1014F00041FD8E480F940DA9CDE90DA5109703F07D
:1015000039FD4FF440538A480DA9CDE90D35CDE999
:101510000F4703F02FFD87480F940DA9CDE90D5417
:1015200003F028FD0DA98048CDE90D64CDE90F54E5
:1015300003F020FD8048814B814E036003F00EFCD8
:10154000804A814B3462C6E9002330464FF4804321
:10155000C6E90434C6E90244C6E9064403F0E2FFE2
:101560001021304604F01EFA2146304604F039FAC4
:101570007648774984624FF48273C0E900134FF4D0
:1015800000761823C0E906630A23724EC362C0E9DD
:101590000244C0E90444C0E9084405F0B1F86E4BC8
:1015A0000D974FF0100CC6E900354023C6E904C37F
:1015B0004FF4C073C6E906344FF40063C6E908343B
:1015C0004FF40053B3620DA9072330464FF00809CA
:1015D000CDE90E3ACDE91038C6E9024ACDE91277D5
:1015E00004F08AFF4FF6FF7209A93046CDE90A954B
:1015F000089409950C9404F09FFF284603F048FBDB
:101600004FF6FF7209A93046CDE90979CDE90B54AF
:1016100004F092FF4FF6FF7209A93046CDE909891F
:10162000CDE90BA404F088FF4FF40C730893089BDA
:101630000C934FF6FF7209A93046CDE909A90B9525
:1016400004F07AFF40F26A51304604F093FF3422EE
:1016500021460DEB02001AF010FB404E404B346166
:10166000C6E900340923C6E905351D2340F20D1EE5
:10167000C6E9073840F24313C6E909E3304640F2B1
:10168000471340F21718C6E90B83C6E90244B48633
:1016900086F8364004F04AFAFF21F022CDE9121410
:1016A0004FF4806A05214FF4A073CDE90E24CDE9F3
:1016B00014A1CDE916420DA922463046CDE91037D6
:1016C000284E18930D94ADF864408DF8664004F0F0
:1016D000F8FA254B33601B6898473368234EDB6864
:1016E0009847234B3046C6E90034C6E90274C6E980
:1016F0000A47C6E90C4403F041FB2946304603F093
:10170000F5FBFEF766FF05F0B3FC1A4A294648468A
:1017100005F0EDFD184B194A18602946484605F0BA
:10172000E6FD2DE0003802400010024000080240B3
:10173000000C02400000024038250020003002402A
:10174000A4240020005C0040A0860100A423002007
:101750000050014070230020400100A0FC23002025
:1017600000680140542300201C000020F8240020C1
:1017700000B0024050CF01086423002038CF010898
:10178000104B114A18602946484605F0B0FD0F4B32
:101790000F4A18602946484605F0A9FD0D4B0E4A30
:1017A000186021460D4805F08FFC0D4B0D4A18605E
:1017B00021460D4805F088FC0C4B186005F06AFCCA
:1017C000FEE700BF6023002020CF01085C2300203B
:1017D00008CF0108582300208CCF01088912000887
:1017E0006C23002068CF0108D7050008682300207B
:1017F000704770477FB5094B8DF817201B6802931F
:101800000DF117020123009201930A460146044894
:1018100003F030FF07B05DF804FB00BF10000020AC
:10182000A42400207FB500238DF81730084B1B68D7
:1018300002930A4601230DF117010091019301461D
:10184000044803F0A7FF9DF8170007B05DF804FBFC
:1018500010000020A42400201FB5084C246800922A
:10186000CDE901340A4601230146054803F092FF01
:10187000003818BF012004B010BD00BF10000020C8
:10188000A424002003F004BA10B5064C0022204620
:10189000042103F059FC20460122BDE81040042138
:1018A00003F052BC0008024038B50B4D044601223B
:1018B0000A484FF4005103F047FC00220421284657
:1018C00003F042FC2046FFF7CDFC28460122BDE88C
:1018D0003840042103F038BC00080240000C0240EC
:1018E00038B50B4D044600220A484FF4005103F06E
:1018F0002BFC00220421284603F026FC2046FFF79B
:10190000B1FC28460122BDE83840042103F01CBC8C
:1019100000080240000C0240F7B5144E144F054673
:101920000C4630460022042103F00EFC00224FF446
:101930000051384603F008FC2846FFF793FC0D4B96
:101940000D481B68224601A905F0D5F8384601224A
:101950004FF40051019C03F0F7FB304601220421B3
:1019600003F0F2FB204603B0F0BD00BF00080240C8
:10197000000C02400C000020A423002003F088B9D2
:101980000268034B9A4201D103F070B9704700BF5F
:10199000001000407047000082B00E4B0022009201
:1019A000596C41F480415964596C01F480410091B3
:1019B00000990192196C41F0805119641B6C03F07D
:1019C00080530193019B0F216FF0010002B003F0DF
:1019D00085B900BF003802400268094B9A4282B0C4
:1019E0000BD100230193074B1A6B42F480521A6308
:1019F0001B6B03F480530193019B02B0704700BF3F
:101A0000003002400038024007B50F4B02689A428E
:101A100016D10022A3F5F0430192196B41F40001A5
:101A200019631B6B03F40003019305215A20019BEA
:101A300003F054F95A2003B05DF804EB03F080B9C9
:101A400003B05DF804FB00BF00B002402DE9F04395
:101A5000044689B01422002103A81AF00EF9226866
:101A6000244B9A4243D1244C244800250095236BF3
:101A700043F004032363236B03F004030093009BF0
:101A80000195236B43F001032363236B03F00103F0
:101A90000193019B4FF012094FF400734FF00108BE
:101AA0000327042603A9CDE90339CDE90587079665
:101AB00003F060FA4FF480731148079603A9CDE94B
:101AC0000339CDE9058703F055FA0295236C43F4F9
:101AD00000032364236C03F400030293029B236A34
:101AE00043F400032362236A23F40003236209B052
:101AF000BDE8F083005C004000380240000802406E
:101B000000000240F0B599B004461422002107A855
:101B10001AF0B3F830220DEB020000211AF0ADF8F4
:101B200022685E4B9A4240F0B78008230C93C02392
:101B30001093042312930CA84FF40033159304F070
:101B4000AFFB08B1FFF726FF554B56480024009421
:101B50005A6C42F080625A645A6C02F080620092C1
:101B6000009A01941A6B42F020021A631A6B02F079
:101B700020020192019A02941A6B42F001021A6348
:101B80001A6B02F001020292029A03941A6B42F05D
:101B900002021A631A6B02F002020392039A04947F
:101BA0001A6B42F040021A631A6B02F04002049270
:101BB000049A05941A6B42F004021A631A6B02F03D
:101BC00004020592059A06941A6B42F008021A6301
:101BD0001B6B03F00803069302250E26069B0B964B
:101BE0004FF4806307A9CDE90735CDE9094503F036
:101BF000C1F941F658032C480B9607A9CDE90735E2
:101C00000927CDE9094503F0B5F9032327480B97C8
:101C100007A9CDE90735CDE9094503F0ABF94FF444
:101C2000706322480B9607A9CDE90735CDE9094530
:101C300003F0A0F94FF40C631D480B9607A9CDE9FA
:101C40000735CDE9094503F095F9C02319480B96EE
:101C500007A9CDE90735CDE9094503F08BF908233C
:101C600015480B9607A9CDE90735CDE9094503F0DD
:101C700081F94FF4A0530E480B9707A9CDE907351A
:101C8000CDE9094503F076F958202246052103F0F5
:101C900025F8582003F054F819B0F0BD0068014051
:101CA00000380240001402400000024000040240DC
:101CB0000018024000080240000C024010B5044623
:101CC00088B01422002103A819F0D7FF2268144B12
:101CD0009A4223D103F56843002101915A6C1148BF
:101CE00042F480125A645A6C02F480120192019AF2
:101CF00002911A6B42F020021A631B6B03F020035F
:101D00000293029B4FF4607202230321CDE9032367
:101D10000523CDE9061303A903F02CF908B010BD83
:101D200000500140001402402DE9F04186B000232C
:101D300003932B4B1C68002C4FD14FF00108C3F8C4
:101D40000080284B00949A6B274842EA08029A6365
:101D50009B6B03EA08030093022703260C25009BD4
:101D600001A94FF63F03CDE90137CDE9046503F042
:101D700001F91E48059501A9CDE90187CDE9034682
:101D800003F0F8F848F233131948059501A9CDE995
:101D90000137CDE9034603F0EDF84FF6837315489C
:101DA000059501A9CDE90137CDE9034603F0E2F835
:101DB0004CF203731048059501A9CDE90137CDE92F
:101DC000034603F0D7F860230C48059501A9CDE937
:101DD0000137CDE9034603F0CDF806B0BDE8F08148
:101DE0004025002000380240001402400008024054
:101DF0000018024000100240000C024000040240A3
:101E000030B5014689B00022362002F067FF362047
:101E100002F096FF0025154B02951A6C144C42F007
:101E200010021A641B6C03F01003029301A903A8AB
:101E3000029B04F017FA04F005FA0E4B236040F2FF
:101E4000E733E36040000C4BB0FBF3F00138606017
:101E500020462561A56005F033F820B9204604F03E
:101E6000E9FE09B030BD0120FBE700BF00380240A9
:101E7000442500200010004040420F007047FEE75C
:101E8000FEE7FEE7FEE77047014804F011BF00BF20
:101E900044250020014803F0B7BE00BFFC2300200A
:101EA000014802F099BF00BFF824002001207047CC
:101EB00008B519F085FF162303604FF0FF3008BD09
:101EC00008B519F07DFF16230360FEE770B50D46D7
:101ED00014460E46731B9C4201DC204670BDAFF3D6
:101EE000008006F8010BF5E770B50D4614460E4666
:101EF000731B9C4201DC204670BD16F8010BAFF34A
:101F00000080F5E74FF0FF3070474FF400534B600F
:101F10000020704701207047002070470A4A11686E
:101F200008B5034609B909491160106869460344B8
:101F30008B4206D919F044FF0C2303604FF0FF30A9
:101F400008BD1360FCE700BF8C2500203044012051
:101F500000207047704710B50421044619F058FC62
:101F6000204610BD00487047C4CF010826207047A6
:101F70007047704700F598730868496803C3704755
:101F8000704770474160704770470000064BC0F8CB
:101F90004C310023C0F8503100F5A273C0F848015D
:101FA000C0F84031704700BF2521000801230372AB
:101FB000704770477047704710B4C268416854104A
:101FC000034601EB6200D20748BF0A599B685DF8DF
:101FD000044B48BFD35818470346406830B19A684D
:101FE0001AB9D86800F0010070470120704710B599
:101FF0000C21044619F00CFC204610BD10B5102130
:10200000044619F005FC204610BD10B54FF4AE7122
:10201000044619F0FDFB204610BD10B540210446D2
:1020200019F0F6FB204610BD10B50AF0F5F803686C
:10203000BDE81040DB6B1847054B1B7801462BB100
:10204000406818B103680C315B6E1847704700BFD9
:10205000FF370120037A70B50546BBB940680368B5
:10206000DB69984704463CB96868036805F10C01D0
:102070001B6EBDE870401847A1886B8FC91A236892
:1020800020461B6B09B29847A469ECE770BD10B5F8
:102090000446D0F8400158B10368DB68984738B16E
:1020A000D4F8400103689B6898470023C4F8403186
:1020B00010BD70B5044690F8390094F838300130FE
:1020C000C0B2984284F8390005D901232372002355
:1020D00084F8393070BDB4F93A2000210BF01CFCB3
:1020E000C30706D500284FF6FF73C8BF0123184465
:1020F00000B2238AC01AA08760680368DB6998472A
:1021000005462DB960680368BDE870405B691847F3
:10211000A988A38F19442B6828461B6B09B29847DE
:10212000AD69EEE72DE9F14FD0E9556A0746B06891
:1021300003681B6A9847B0F59C7F05D2444B454A1B
:10214000A321454819F092FB706803681B6A984701
:102150000F2803D8414B3F4AA421F2E7F0680368F7
:102160001B6A98470B2803D83D4B3A4AA521E8E75C
:102170000AF052F8DFF8F09004300AF08BF8D9F842
:10218000000010B10368DB689847D9F8000010B16F
:1021900003681B689847DFF8D480D8F8000010B1B6
:1021A00003685B699847D7F83C0110B103685B6826
:1021B0009847D8F8000010B103681B689847D7F813
:1021C0003C0110B103689B689847F06803680021E0
:1021D0005B6A98474FF0000B224BC0F804B00446EE
:1021E00080F808B00360B068036859465B6A984796
:1021F000054601F0A3FE7068036859465B6A98477C
:102200002946064601F078FE331DC7F83C61C9F83F
:102210000040C8F80050CAF800302B68C6F808A083
:102220002846DB68EE639847336830461B6898475A
:10223000214628460BF06AFB236820461B69984715
:1022400023685B69204601B0BDE8F04F184700BF26
:10225000BCD201084AD3010822D4010869D401087C
:102260000CD50108FCD70108403801203C3801207A
:10227000044B1B6893F858200AB1D86C00B99868D1
:10228000704700BF0038012070B504460D46164661
:102290000AF0CEF80E4A14600E4A22600E4A00235D
:1022A000C4E95123C4E95333C4E94F330B4B1868D5
:1022B000036801219B68C4E955659847FFF7D8FF7B
:1022C00011F015FFFFF7D4FF11F08CFF204670BD11
:1022D0004C380120A8D7010890D701080038012008
:1022E000064BC0F84C310023C0F8503100F5A27302
:1022F000C0F84801C0F84031704700BF25210008F0
:10230000064BC0F84C310023C0F8503100F5A273E1
:10231000C0F84801C0F84031704700BFF124000800
:10232000064BC0F84C310023C0F8503100F5A273C1
:10233000C0F84801C0F84031704700BFB52300081D
:102340002DE9F04105460026164B4660067245F819
:102350000C3B044628460F4608F072FA124B84F8EC
:1023600038701B7884F83960A68723B9012323725B
:102370002046BDE8F0810D4B0D4FB3F90080E368B6
:10238000B7F900109B6B266128469847E3684146E1
:10239000DB6B28469847284608F0CDF93B885B421E
:1023A0006387E5E720D80108FF370120F6370120D1
:1023B000F43701202DE9F047D0E9556A0746B068A7
:1023C00003681B6A984741F20F13984205D8414BA6
:1023D000414AA321414819F049FA706803681B6A11
:1023E00098470F2803D83E4B3B4AA421F2E7F068F8
:1023F00003681B6A98473F2803D83A4B364AA52101
:10240000E8E709F009FFDFF8E090043009F042FF47
:10241000D9F8000010B10368DB689847D9F80000CC
:1024200010B103681B689847DFF8C080D8F8000037
:1024300010B103685B699847D7F83C0110B1036895
:102440005B689847D8F8000010B103681B6898478C
:10245000D7F83C0110B103689B689847F06803689F
:1024600000215B6A984714210446FFF769FFB068B2
:10247000036800215B6A9847054601F0E7F8706839
:10248000036800215B6A98472946064601F09CF8DC
:10249000331DC7F83C61C9F80040C8F80050CAF8BD
:1024A00000302B68C6F808A02846DB68EE63984722
:1024B000336830461B689847214628460BF026FAB9
:1024C000236820461B699847236820465B69BDE85E
:1024D000F0471847BCD20108AFD5010822D4010843
:1024E00069D401080CD50108403801203C3801208E
:1024F0002DE9F047D0E9556A0746B06803681B6AC2
:102500009847B0F59C7F05D2414B424AA3214248EF
:1025100019F0ACF9706803681B6A98470F2803D854
:102520003E4B3C4AA421F2E7F06803681B6A9847D7
:102530003F2803D83A4B374AA521E8E709F06CFE5B
:10254000DFF8E090043009F0A5FED9F8000010B1E2
:102550000368DB689847D9F8000010B103681B686E
:102560009847DFF8C480D8F8000010B103685B69B1
:102570009847D7F83C0110B103685B689847D8F8D2
:10258000000010B103681B689847D7F83C0110B1F0
:1025900003689B689847F068036800215B6A984766
:1025A00014210446FFF7CCFEB068036800215B6A83
:1025B0009847054601F0C2FC7068036800215B6A19
:1025C00098472946064601F097FC331DC7F83C6141
:1025D000C9F80040C8F80050CAF800302B68C6F8A7
:1025E00008A02846DB68EE639847336830461B68CE
:1025F0009847214628460BF089F9236820461B6935
:102600009847236820465B69BDE8F047184700BF3C
:10261000BCD201089AD6010822D4010869D4010865
:102620000CD50108403801203C38012000207047BB
:1026300081807047C1807047018170474181704738
:102640007047704770477047704710B4C48803687C
:10265000121B84885B6D091B12B25DF8044B09B232
:1026600018474FF6FF7383814FF0FF3303621368FF
:10267000C36110607047704770477047704770477C
:1026800070477047704730B4C268446855100346BD
:1026900004EB6200D20748BF62599B6830BC48BF58
:1026A000D35818470346406830B19A681AB9D868B9
:1026B00000F0010070470120704710B5102104465A
:1026C00019F0A6F8204610BD10B54FF40B61044672
:1026D00019F09EF8204610BD90F8252012B103682D
:1026E0005B691847704790F825201AB190F82420AC
:1026F00002B11860704738B500F51473994204466A
:102700000D4603D109F088FDFFF7FAFD04F66C04CD
:10271000A54205D109F080FDBDE83840FFF7F0BDC6
:1027200038BD70B5036804461B6B1546984723688F
:10273000294620465B6BBDE87040184770B50446DB
:102740001D46BDF91060FFF7ECFF236829462046BF
:102750009B6B9847236831462046DB6BBDE8704091
:10276000184700000022C0E90122C0E90322C0E9A5
:102770000522C0E907224FF480728284014A026078
:10278000704700BF44D8010838B5262204460D46DC
:10279000002119F072FA2046FFF7E4FF064B236090
:1027A0002B88E384FF23204684F82830294608F04C
:1027B0006AFC204638BD00BF1CDE010810B5262289
:1027C0000446002119F059FA2046FFF7CBFF0023F9
:1027D000A36284F82C30012384F82430044B236056
:1027E0004FF6FF7384F83230E3852386204610BD10
:1027F000A8DD01082DE9F04F0446B1B027460025B9
:102800000AF0D8FED14BE56347F8403B2622294623
:10281000384619F032FA3846FFF7A4FFCC4B236450
:10282000FF2384F8663004F16C034FF6FF762FA97E
:10283000A56618460893ADF8BC60FFF7A5FF04F144
:10284000980304F1C40918462FA904F1F00809936C
:10285000ADF8BC60FFF798FF2FA94846ADF8BC6003
:1028600008F03AF92FA94046ADF8BC6008F034F9F9
:1028700004F58E732FA918460393ADF8BC6008F0D9
:102880002BF904F5A4732FA918460493ADF8BC6086
:1028900008F022F904F5BA732FA918460593ADF88C
:1028A000BC6008F019F904F5D07304F5E67B18460E
:1028B0002FA904F5FC7A0693ADF8BC6008F00CF97A
:1028C0002FA95846ADF8BC6008F006F92FA950466C
:1028D000ADF8BC6008F000F904F509732FA918469B
:1028E0000A93ADF8BC60FFF74FFF04F51473184668
:1028F0000B93FFF763FF04F521732FA918460C9380
:10290000ADF8BC60FFF740FF04F52C732FA9184603
:102910000D93ADF8BC60FFF737FF04F537732FA9AF
:1029200018460E93ADF8BC60FFF72EFF04F5427316
:102930002FA918460F93ADF8BC60FFF725FF04F5EB
:102940004D732FA918461093ADF8BC60FFF71CFF1C
:1029500004F558732FA918461193ADF8BC60FFF722
:1029600013FF04F563732FA918461293ADF8BC60EA
:10297000FFF70AFF04F56E732FA918461393ADF8FD
:10298000BC60FFF701FF04F579732FA91846149373
:10299000ADF8BC60FFF7F8FE04F582632FA9184676
:1029A0001593ADF8BC60FFF7EFFE04F23C432FA98E
:1029B00018461693ADF8BC60FFF7E6FE04F58D638C
:1029C0002FA918461793ADF8BC60FFF7DDFE04F29F
:1029D00094432FA918461893ADF8BC60FFF7D4FEB6
:1029E00004F598632FA918461993ADF8BC60FFF75A
:1029F000CBFE04F2EC432FA918461A93ADF8BC6045
:102A0000FFF7C2FE04F5A3632FA918461B93ADF888
:102A1000BC60FFF7B9FE04F244532FA918461C937B
:102A2000ADF8BC60FFF7B0FE04F5AE632FA9184601
:102A30001D93ADF8BC60FFF7A7FE04F29C532FA9CD
:102A400018461E93ADF8BC60FFF79EFE04F5B9630F
:102A50002FA918461F93ADF8BC60FFF795FE04F24E
:102A6000F4532FA918462093ADF8BC60FFF78CFEF5
:102A700004F5C4632FA918462193ADF8BC60FFF795
:102A800083FE04F24C632FA918462293ADF8BC6074
:102A9000FFF77AFE04F5CF632FA918462393ADF80C
:102AA000BC60FFF771FE04F2A4632FA918462493BB
:102AB000ADF8BC60FFF768FE04F5DA632FA918468D
:102AC0002593ADF8BC60FFF75FFE04F2FC632FA90D
:102AD00018462693ADF8BC60FFF756FE04F5E56393
:102AE0002FA918462793ADF8BC60FFF74DFE04F2FE
:102AF00054732FA918462893ADF8BC60FFF744FE25
:102B000004F5F0632FA918462993ADF8BC60FFF7D0
:102B10003BFE04F2AC732FA918462A93ADF8BC60B3
:102B2000FFF732FE04F5FB632FA918462B93ADF88F
:102B3000BC60FFF729FE04F604032FA918462C9366
:102B4000ADF8BC60FFF720FE04E000BFC4D8010868
:102B500040DD010804F503632FA918460793ADF87B
:102B6000BC60FFF711FED64BC4F830384FF0FF338E
:102B7000C4F860380123C4F8643804F66C03C4F860
:102B80005C5884F8685818462D93FFF717FECD4B14
:102B9000C4F8A038CC4BC4F8A8384FF4A0732A4628
:102BA000C4F8A448C4F8AC58294600933846F0232A
:102BB000261DFFF7C3FD4FF07F43A366394630461D
:102BC00006F03AFC2A4608982946FFF7AAFD08981D
:102BD000ADF8BC502FA908F056FA0899304606F017
:102BE0002BFCBA4A09982946FFF79BFD0998ADF8D6
:102BF000BC502FA908F047FA0999304606F01CFC92
:102C00000A232FA94846ADF8BC3008F03CFA1A2335
:102C10002A46009329467F234846FFF78FFD294621
:102C2000484607F014FF4946304606F005FC4FF0D1
:102C30000B092FA940461627ADF8BC9008F023FADF
:102C4000022211460F2340460097FFF777FD2946E1
:102C5000404607F0FCFE4146304606F0EDFB039887
:102C6000ADF8BC902FA908F00EFA0F2302220398AA
:102C700000971121FFF762FD0398294607F0E7FE50
:102C80000399304606F0D8FB0498ADF8BC902FA904
:102C900008F0F9F90F230222049800972021FFF78A
:102CA0004DFD0498294607F0D2FE0499304606F0FF
:102CB000C3FB0598ADF8BC902FA908F0E4F90F23E9
:102CC0000222059800972F21FFF738FD0598294625
:102CD00007F0BDFE0599304606F0AEFB0698ADF84C
:102CE000BC902FA908F0CFF90F2302220698009775
:102CF0003E21FFF723FD0698294607F0A8FE069916
:102D0000304606F099FB2FA95846ADF8BC9008F064
:102D1000BAF90F230222584600974D21FFF70EFD06
:102D20002946584607F093FE5946304606F084FB84
:102D30002FA95046ADF8BC9008F0A5F90F23022248
:102D4000504600975C21FFF7F9FC2946504607F0F2
:102D50007EFE5146304606F06FFB2D220A98142164
:102D6000FFF7DFFC1C230A98ADF8BC302FA908F050
:102D70008AF90A99304606F05FFB0B98DE2246215D
:102D8000FFF7CFFC09232FAA0B98ADF8B8302EA976
:102D9000ADF8BC3008F0AAF804F50A63C4F878323C
:102DA0000B990393304606F047FB02220C98A821AA
:102DB000FFF7B7FC4FF00F030C98ADF8BC302FA90C
:102DC00008F061F90C99304606F036FB0D980222A6
:102DD000AD21FFF7A6FC4FF010020D98ADF8BC2016
:102DE0002FA908F050F90D9984F8D552304606F015
:102DF00023FB02220E98A921FFF793FC2FA84FF086
:102E00001101ADF8BC1001460E9808F03CF90E997E
:102E100084F80153304606F00FFB02220F98A821D8
:102E2000FFF77FFC0DF1BC0C4FF012006146ADF8CE
:102E3000BC000F9808F027F90F9984F82D533046FD
:102E400006F0FAFA02221098A721FFF76AFC0DF1AA
:102E5000BC0C132361461098ADF8BC3008F013F990
:102E6000109984F85953304606F0E6FA0222119878
:102E7000A921FFF756FC0DF1BC0C61464FF0140B75
:102E80001198ADF8BCB008F0FEF8119984F885539C
:102E9000304606F0D1FA03221298A721FFF741FC31
:102EA0000DF1BC0C61464FF0150A1298ADF8BCA0AC
:102EB00008F0E9F8129984F8B153304608E000BFF1
:102EC00050DC0108ACD80108F726000852FEFFFFCD
:102ED00006F0B2FA02221398A921FFF722FC0DF1A5
:102EE000BC0C61461398ADF8BC7008F0CCF813998F
:102EF00084F8DD53304606F09FFA02221498A72189
:102F0000FFF70FFC0DF1BC0C61464FF01709149848
:102F1000ADF8BC9008F0B7F8149984F8095430461D
:102F200006F08AFA02221598A821FFF7FAFB0DF1A4
:102F3000BC0C61464FF018081598ADF8BC8008F03D
:102F4000A2F8159984F83554304606F075FA022235
:102F50001698BF21FFF7E5FB0DF1BC0C4FF00F03F6
:102F600061461698ADF8BC3008F08DF816993046D9
:102F700006F062FA17980122C321FFF7D2FB0DF188
:102F8000BC0C61464FF010021798ADF8BC2008F059
:102F90007AF8179984F88D54304606F04DFA0222DB
:102FA0001898BF21FFF7BDFB0DF1BC0C4FF01101CC
:102FB0001898ADF8BC10614608F065F8189984F8C7
:102FC000B954304606F038FA02221998BF21FFF7AB
:102FD000A8FB0DF1BC0C4FF012006146ADF8BC002F
:102FE000199808F050F8199984F8E554304606F01D
:102FF00023FA02221A98BE21FFF793FB0DF1BC0CB5
:10300000132361461A98ADF8BC3008F03CF81A99C1
:1030100084F81155304606F00FFA01221B98C021A2
:10302000FFF77FFB0DF1BC0C61461B98ADF8BCB0FF
:1030300008F029F81B9984F83D55304606F0FCF954
:1030400002221C98BF21FFF76CFB0DF1BC0C6146FE
:103050001C98ADF8BCA008F016F81C9984F86955C6
:10306000304606F0E9F902221D98C121FFF759FB0D
:103070000DF1BC0C61461D98ADF8BC7008F003F86A
:103080001D9984F89555304606F0D6F902221E980F
:10309000BF21FFF746FB0DF1BC0C61461E98ADF851
:1030A000BC9007F0F0FF1E9984F8C155304606F039
:1030B000C3F902221F98BF21FFF733FB0DF1BC0CAF
:1030C00061461F98ADF8BC8007F0DDFF1F9984F8BA
:1030D000ED55304606F0B0F902222098D621FFF7D0
:1030E00020FB4FF00F03ADF8BC302FAB19462098F2
:1030F00007F0C9FF2099304606F09EF92198022278
:10310000DA21FFF70EFB2FAB19464FF01002219882
:10311000ADF8BC2007F0B7FF219984F8455630463A
:1031200006F08AF902222298D721FFF7FAFA4FF027
:1031300011012298ADF8BC102FA907F0A4FF229925
:1031400084F87156304606F077F902222398D6218A
:10315000FFF7E7FA4FF01200ADF8BC002FA9239853
:1031600007F091FF239984F89D56304606F064F9E4
:1031700002222498D521FFF7D4FA13232498ADF81E
:10318000BC302FA907F07FFF249984F8C956304638
:1031900006F052F902222598D721FFF7C2FA2598A6
:1031A000ADF8BCB02FA907F06EFF259984F8F5564D
:1031B000304606F041F902222698D521FFF7B1FAF0
:1031C0002698ADF8BCA02FA907F05DFF269984F8DA
:1031D0002157304606F030F902222798D821FFF710
:1031E000A0FA2798ADF8BC702FA907F04CFF2799DB
:1031F00084F84D57304606F01FF902222898D52151
:10320000FFF78FFA2898ADF8BC902FA907F03BFF85
:10321000289984F87957304606F00EF90222299849
:10322000D521FFF77EFA2998ADF8BC802FA907F0C9
:103230002AFF299984F8A557304606F0FDF85B224D
:103240002A984121FFF76DFA21232A98ADF8BC3066
:103250002FA907F018FF2A99304606F0EDF85B22F7
:103260002B984121FFF75DFA22232B98ADF8BC3053
:103270002FA907F008FF2B99304606F0DDF85B22F6
:103280002C984121FFF74DFA23232C98ADF8BC3040
:103290002FA907F0F8FE2C99304606F0CDF80798D4
:1032A0000122D221FFF73DFA08220798072107F0F3
:1032B000B5FB0798012107F0C4FB079984F858581B
:1032C000304684F8555806F0B7F82D984FF49172AF
:1032D0000121FFF726FA1D232D98ADF8B8302FAA4B
:1032E0002EA9ADF8BC3007F001FE039B2D99C4F860
:1032F0009438304606F0A0F8204631B0BDE8F08F93
:1033000070477047704730B4C26844685510034630
:1033100004EB6200D20748BF62599B6830BC48BFCB
:10332000D35818470346406830B19A681AB9D8682C
:1033300000F0010070470120704710B510210446CD
:1033400018F066FA204610BD10B54FF49A71044685
:1033500018F05EFA204610BDF030884208B505D15D
:1033600008F05AFFBDE80840FEF7DABF08BD0000CC
:103370002DE9F74F0446264600250AF01BF9554B68
:10338000E56346F8403B26222946304618F075FC96
:103390003046FFF7E7F9504B236404F16C0BFF2331
:1033A00084F866304FF6FF7704F1980A01A9A56604
:1033B000584604F1C409ADF80470FFF7E5F901A916
:1033C000504604F1F008ADF80470FFF7DDF901A9EB
:1033D0004846ADF80470FFF7D7F929462622404643
:1033E00018F04BFC4046FFF7BDF9012384F8143177
:1033F0003A4BC4F8F0303A4BA4F81E71C4E9493492
:10340000384BA4F820712A46C4E94B3584F8227160
:1034100029463046C4F8185184F81C51FFF781F949
:103420003046F021FFF708F930464FF4A071FFF75E
:1034300005F9271D4FF07F43A3663146384605F056
:10344000FBFF2A4629465846FFF76BF901A9584663
:10345000ADF8045007F017FE5946384605F0ECFF6A
:10346000214A29465046FFF75CF901A95046ADF8BC
:10347000045007F008FE5146384605F0DDFF1B22D8
:1034800048461421FFF74DF9252301A94846ADF818
:10349000043007F0F8FD4946384605F0CDFF4046B8
:1034A000D7224621FFF73DF9242301AA6946404669
:1034B000ADF80030ADF8043007F018FD04F5927354
:1034C0003846C4F81831414605F0B6FF204603B02F
:1034D000BDE8F08F10D9010840DD0108A8DD010822
:1034E000F8D801085933000852FEFFFF38B518BB61
:1034F000124B13481C681349B4B12268224402607D
:10350000626822440A60A26814440F4B00221A80A9
:1035100000F02AF8054600F025F80C4B1C600C4B17
:103520001D600C4B188007E00B4B03600B4B0B60CE
:103530000B4B1C68002CE8D138BD00BF9C25002037
:103540009425002090250020982500205038012047
:10355000583801205438012098E2010894E201080B
:103560009CE201080020704700487047A025002019
:10357000704710B54FF4AE71044618F049F9204673
:1035800010BD10B50446D0F8580100F0FCFC2046F0
:10359000BDE8104008F0DCBE10B50446FEF774FE2E
:1035A000014B2360204610BD44D901087047043800
:1035B0007047704710B51021044618F029F92046CD
:1035C00010BDA0F10400F5E700228260024A02600B
:1035D00018324260C160704798D9010870470000F6
:1035E000134B70B50446036041F2E40540F62C76B7
:1035F000635960191B682C3D9847B542F8D140F6D5
:103600007456635960191B682C3D9847B542F8D130
:1036100040F6645540F6B406635960191B683C3D9A
:103620009847B542F8D12046FFF72AF8204670BDEA
:10363000CCD9010810B50446FFF7D2FF204641F26D
:10364000101118F0E5F8204610BD00002DE9F04FEC
:1036500005468FB0FFF7CEF805F6B409744B2B6022
:103660004FF6FF7702A948460026DFF8CCB1ADF847
:1036700008704FF0010AFFF787F805F50F684FF063
:10368000FF33C5F8E438C5F8B4B8C5F8E068C5F844
:10369000E8A885F8EC6805F55A634446204602A977
:1036A0000193ADF80870FFF76FF8019BC4F800B004
:1036B000E6622786678684F834A084F8356084F84B
:1036C000366084F8376084F838603C349C42E5D139
:1036D00005F6587A26464FF6FF77304602A92C3673
:1036E000ADF80870FFF750F85645F6D105F5885744
:1036F000564610374FF6FF7B304602A92C36ADF800
:1037000008B0FFF741F8BE42F6D10023494EC5F894
:10371000B03802A800F042FDBDF80C30B3809DF82F
:103720000E30B371BDF92430059AB3830A9BF26061
:103730003362069A0B9B32617362079A0C9B72612B
:103740002F1D089AB36202A8BDF83430B261B38568
:1037500000F036FD384605F2AC7105F0AEFE384695
:1037600005F5FB6105F0A9FE384605F6040105F0F4
:10377000A4FE384605F5097105F09FFE384605F5AB
:10378000147105F09AFE1F2302A94846ADF80830CF
:1037900007F078F8B6F90E20B6F90C104846FEF797
:1037A000C0FF3846494605F047FE042704F5DC769D
:1037B000212240F241113046FEF7B3FFD4F8B83170
:1037C00002A91B6EADF808703046984720462122AA
:1037D00040F24111FEF7A5FF236801221B6EADF8F0
:1037E0000820204602A92C3498475445DED10024F5
:1037F0000326B4FBF6F303EB4303E31A0ED0012BCD
:1038000012D040461421013407F01BF9142C08F1A2
:103810003C08EED128460FB0BDE8F08F0622052106
:10382000404607F0FBF8ECE708220721F8E700BF65
:10383000CCD90108682A002050DC01082DE9F74F97
:103840002D4DAE8804460A23632EB6FBF3F2B2FB7D
:10385000F3F103FB112103FB12624FF000034FF061
:10386000640089B292B284F8A93284F8D53284F81F
:10387000013384F82D3384F8593384F8853384F880
:10388000B13384F8DD3384F8093484F8353484F8AE
:10389000613484F88D3484F8B93484F8E53484F8DC
:1038A000113584F83D3584F8693584F8953584F808
:1038B000C13584F8ED3584F8193684F8453684F836
:1038C000713684F89D3684F8C93684F8F53684F864
:1038D000213784F84D3784F8793784F8A537B6FB5B
:1038E000F0F00BD8012384F8A932032840F082813C
:1038F000012384F82D3306E0682A0020012840F0D7
:10390000728184F8D502002940F09881012384F85F
:103910006134002A40F0E281012384F81936D4F89A
:10392000B0380133B3F5D77FC8BF0023C4F8B0382F
:10393000A4F87230A3F5D773A4F89E30C54B1B785A
:10394000271D23B3C44B1B780BB3DFF81C8398F8F7
:103950000030E3B904F50971384605F06DFD962E87
:1039600040F2F18104F60401384604F5147605F0BE
:1039700063FD3146384605F05FFD304609F0E2FB55
:10398000012388F80030B54B186803F0E4FBDFF83A
:10399000DC82DFF8DC92D8F800004FF0000A8DF8E6
:1039A00003A003F040FD04F6B406E8B14FF0FF3386
:1039B000D8F8000052460DF1030103F004FD9DF814
:1039C0000330522B40F0C681B5F92810A44800F00E
:1039D00079FC2023304601A9ADF8043006F052FFEF
:1039E000D9F8000003F021FDD9F8000003F01BFD19
:1039F000F0B14FF0FF33D9F8000000220DF10301C0
:103A000003F0E1FC9DF803304C2B40F0B281A96A31
:103A10009348494209B200F055FC1E23304601A9E3
:103A2000ADF8043006F02EFFD8F8000003F0FDFCDE
:103A3000DFF84082DFF84092D8F8000003F0F3FC92
:103A4000B0B14FF0FF33D8F8000000220DF10301B0
:103A500003F0B9FC9DF80330552B40F09981804864
:103A6000B5F9281000F030FCD9F8000003F0DDFCB7
:103A7000D9F8000003F0D7FCB8B14FF0FF33D9F804
:103A8000000000220DF1030103F09DFC9DF80330BE
:103A9000442B40F08581A96A7148494209B200F07F
:103AA00013FCD8F8000003F0C0FC3046B5F90E2036
:103AB000B5F90C10DFF8C4A1FEF7C7FD04F55A698B
:103AC000264604F65878BAF91030022B00F07081BF
:103AD000042B00F07F81012B08D1D9F80030BAF90E
:103AE00006209B6DBAF904104846984709F12C0945
:103AF000C8450AF11C0AE6D104F5885ADFF880911E
:103B00000AF1100AB9F91030022B00F06981042B78
:103B100000F07881012B08D1D8F80030B9F90620DF
:103B20009B6DB9F904104046984708F12C08D04520
:103B300009F11C09E6D1DFF84C8104F5966AB8F961
:103B40001030022B00F06481042B00F07E81012BE9
:103B500009D1D6F8F038B8F906209B6DB8F90410F1
:103B600006F50F6098473C36B24508F12008E6D1CB
:103B70003C4AB5F92C3011788B422ED0DBB2137051
:103B8000642284F8182184F8442184F8702184F890
:103B90009C2184F8C82184F8F42184F82022002B89
:103BA00000F06081FF22012B84F8182115D0022B30
:103BB00084F8442111D0032B84F870210DD0042BFC
:103BC00084F89C2109D0052B84F8C82105D0062B48
:103BD00084F8F42101D084F82022384609F0B2FAA2
:103BE00003B0BDE8F08F02287FF47FAE012384F894
:103BF000013388E6042803D1012384F8593382E68F
:103C0000052803D1012384F885337CE6062803D1F7
:103C1000012384F8B13376E6072803D1012384F821
:103C2000DD3370E6082803D1012384F809346AE6FD
:103C3000092804BF012384F8353464E6012902D140
:103C400084F88D1465E602291ED1012384F8B93465
:103C50005FE600BFAE250020AD250020A82500208E
:103C6000702A002014000020A425002064230020D6
:103C7000602300205C2300205823002050290020CE
:103C800038280020B8250020032903D1012384F817
:103C9000E5343EE6042903D1012384F8113538E6E2
:103CA000052903D1012384F83D3532E6062903D1E5
:103CB000012384F869352CE6072903D1012384F810
:103CC000953526E6082903D1012384F8C13520E67D
:103CD000092904BF012384F8ED351AE6012A02D12F
:103CE00084F845261BE6022A03D1012384F87136A5
:103CF00015E6032A03D1012384F89D360FE6042A32
:103D000003D1012384F8C93609E6052A03D101232A
:103D100084F8F53603E6062A03D1012384F8213717
:103D2000FDE5072A03D1012384F84D37F7E5082A7A
:103D300003D1012384F87937F1E5092A04BF01236F
:103D400084F8A537EBE5322E8CBF04F5FB6104F255
:103D5000AC7109E64E2B7FF447AE5146454800F062
:103D6000B1FA1F2301A93046ADF8043006F08AFDF0
:103D70003AE64E2B7FF45CAE3E48002100F0A2FAFA
:103D80001F2301A93046ADF8043006F07BFD4FE655
:103D90004E2B7FF46DAE3748002100F095FA67E6B0
:103DA0004E2B7FF482AE3348002100F08DFA7CE682
:103DB000D9F80030BAF906209B6DBAF904104846CC
:103DC00098474946384605F037FB0121504600F038
:103DD000A9F98BE64946384605F06FFB0321F5E764
:103DE000D8F80030B9F906209B6DB9F904104046A7
:103DF00098474146384605F01FFB0121484600F030
:103E000091F992E64146384605F057FB0321F5E764
:103E1000D6F8F038B8F906209B6DB8F9041006F50D
:103E20000F6948469847D6F8F038D3F864B00123B4
:103E30001A4600214846D8474946384605F0FCFA5C
:103E40000121404600F06EF98DE6D6F8F03806F50F
:103E50000F699B6E484698474946384605F02DFB4A
:103E60000321EEE7044B012238461A7009F06AF983
:103E7000B3E600BF702A0020AD25002010B5114C1C
:103E80008AB0FEF7FEFB206803F065F920220021CE
:103E900002A817F0F2FE0C4B01934FF48042182356
:103EA000CDE90623002101AA084803F00DF9084ACC
:103EB000206000231370074A1370074A13700AB07A
:103EC00010BD00BFA8250020B8D90108694400082A
:103ED000AE250020AD250020A42500207047043821
:103EE0007047704710B51021044617F091FC20462A
:103EF00010BDA0F10400F5E700228260024A0260D2
:103F000018324260C160704700DA01087047000053
:103F100010B5034B03600446FFF7F2F9204610BDCD
:103F200028DA010810B50446FFF7F2FF20464FF4E7
:103F30009C7117F06DFC204610BD000010B50446C2
:103F4000FFF716FA034B23600023C4F834312046F0
:103F500010BD00BF28DA0108FFF7D3B9D0F834311B
:103F60000133B3F5D77FC8BF0023C0F83431A0F8C0
:103F70007230A3F5D773A0F89E30043009F0E2B890
:103F8000002202607047704710B5034B036004467F
:103F900000F0B3F8204610BD5CDA010810B5044605
:103FA000FFF7F2FF20461C2117F032FC204610BD1F
:103FB00010B5044600F0ACF8064B074923604FF4F7
:103FC0006173A3610023C4E90213044B23612046FB
:103FD00010BD00BF5CDA010810002200030084035A
:103FE000B0F9083010B5B0F904405B429C420BDBDD
:103FF000F02C09DCB0F90A30B0F906205B429A4295
:1040000002DBB2F5A07F05DD0423038283694382CE
:10401000002010BD438A591A09B200294182F7DCF9
:1040200083891C44C38984801A448369C280438283
:104030000120EEE710B5034B0360044600F05DF885
:10404000204610BD70DA010810B50446FFF7F2FFF4
:104050002046202117F0DCFB204610BD10B5044699
:1040600000F056F8084B23604FF4487247F2305383
:10407000C4E906234FF030110022C4E90212034ABA
:104080002261A382204610BD70DA010803002003DC
:10409000B0F90830B0F904205B429A4210B508DB51
:1040A000F02A06DCB0F90A30B0F906405B429C42C7
:1040B00007DA04230382C369838283694382002071
:1040C00010BD438A591A09B200294182F7DC83895D
:1040D0001A44C38982801C448369C48043820120BE
:1040E000EEE7838A591A09B20029D8BFC3698182D1
:1040F000DABF83820120002070477047002070479C
:1041000010B51821044617F083FB204610BD0000AF
:10411000034A0260032202824FF02012826070473D
:1041200084DA0108018270478180C28070478181F2
:10413000C2817047B0F90420B0F9083010B5B1F968
:1041400004401344A34225DDB1F9083023449A42C8
:10415000ACBF00220122B0F90A3003EBD374B0F9EE
:104160000630B1F90A00B1F9061000EBD07003EB8C
:10417000640301EB60011C1F481D84420CDC043306
:1041800005398B42B4BF00230123002A0CBF10461F
:10419000184610BD0022DEE70023F6E710B5054BF8
:1041A00003600023044683808371083000F032F8F6
:1041B000204610BD98DA0108838819448180704731
:1041C00010B5044B044640F8083B00F00FF82046B9
:1041D00010BD00BF98DA010810B50446FFF7F0FFE4
:1041E0002046302117F014FB204610BD10B5034BBC
:1041F00003600446FFF781FF204610BDA8DA0108DE
:1042000010B50446FFF7F2FF2046282117F000FB07
:10421000204610BD10B50446FFF77AFF0321216246
:1042200007210948A1840949094B2360C4E9010118
:104230004FF4C87342F210720021C4E90632E16003
:10424000A2826382204610BD6800DC0030003A0084
:10425000A8DA0108438A591A09B2002941821FDCF1
:1042600082888389C1891A44C38812B20B441BB265
:1042700081698280002AC380418207DA002282801D
:10428000002B07DA0023C38001207047D02AF7DD16
:10429000D022F4E7B3F5907FF6DD4FF49073F2E7A8
:1042A00000207047838A591A09B20029D8BFC36910
:1042B0008182DABF8382012000207047838C1944F9
:1042C0008184704781817047C18170472DE9F04733
:1042D000DFF890A0224CDAF80030DFF88C80DFF8AD
:1042E0008C901B1A0546CAF800301426B4F9103019
:1042F000032B09D029462046FFF7CAFE013E04F1F0
:104300002004F3D1BDE8F087DAF80030002BF5DCAB
:10431000D8F8003003F00102002A4FF6E0714FF6A2
:10432000FF770CBFF0210127032B94BF19F803205E
:104330000022022BD4BF013300232046C8F80030EE
:10434000FFF7F2FE002239462046FFF7F0FE022179
:104350002046FFF7E7FE44F62063CAF80030CDE7B9
:10436000B825002018000020B4250020B4DA010888
:104370002DE9F843014606461448154CDFF85480F1
:10438000DFF85490FFF78EFF04F58C770546B4F9FB
:104390001030032B08D031462046FFF721FE1C3495
:1043A000BC42F4D1BDE8F88375B1B8F80020B9F883
:1043B0000010103A083189B2204692B2FFF7B4FEDD
:1043C00002212046FFF7AEFE0025E8E7702A002014
:1043D00050290020B0250020B22500202DE9F04111
:1043E0001F4C054600274FF01C08B4F91030012B74
:1043F00010D129462046FFF774FE58B1194A002310
:104400001646B2F91010032919D001330A2B02F114
:104410001C02F6D10137142F04F12004E5D1114C10
:104420000A26B4F91030012B03D129462046FFF7A4
:10443000D7FD013E04F11C04F3D1BDE8F081E28810
:10444000A18808FB036610321431304692B289B25B
:10445000FFF76AFE02213046FFF764FEDAE700BF8D
:10446000B8250020382800202DE9F84FDFF8A89162
:10447000DFF8A8A1002404EB09064FF6CE7211461E
:104480003046FFF751FE04EB0A054FF6CE72114697
:104490002846FFF749FE4FF6FB7200213046FFF732
:1044A00046FE052200212846FFF741FE0321304643
:1044B000FFF738FE1C3403212846FFF733FEB4F51E
:1044C0008C7FD8D14C4F00253C464FF6CE7211461A
:1044D0002046FFF729FE013520460321FFF722FE83
:1044E000142D04F12004F0D1444A454B12781B7876
:1044F00012B1002B7DD1FEE7424D434BAA89434CBC
:104500001A80434BEA891A8001202070FFF7DEFEF3
:10451000217805F10800FFF79DFE2078FFF728FFBE
:104520002078FFF75BFF3C46142605F10808B4F934
:104530001030012B4CD141462046FFF7FBFD0028EF
:1045400046D034484FF0FF31FFF7B8FE0421204633
:10455000FFF7E8FD3E461424B6F91030012B17D1C1
:10456000C8464FF00A0BB8F91010012935D1414661
:104570003046FFF7DFFD80B304213046FFF7D2FD60
:1045800004214046FFF7CEFD1E480521FFF714FE2B
:10459000013C06F12006DFD11E495646B6F910301F
:1045A000012B20D13046FFF7C5FD1A49D8B1194873
:1045B0004FF0FF31FFF782FE04213046FFF7B2FDD6
:1045C000B5F92C30002B8FDC0C4A012313708BE7DC
:1045D000013E04F12004AAD1BCE7BBF1010B08F1B4
:1045E0001C08C0D1D4E701340A2C06F11C06D5D131
:1045F000E6E7BDE8F88F00BFB8250020AE25002013
:10460000AD250020682A0020B2250020AC2500201E
:10461000B0250020702A00205029002038280020D2
:1046200038B50F480F4DFFF7B9FD002428191C3489
:10463000FFF7BEFCB4F58C7FF8D10B4D0024281990
:104640001C34FFF7B5FCB4F58C7FF8D1074D00247E
:1046500028192034FFF702FDB4F5207FF8D138BDCA
:10466000682A00205029002038280020B825002082
:10467000164838B51524013CA0F1200512D1144884
:104680000B24013CA0F11C0514D112480B24013C61
:10469000A0F11C0515D0D0F8FC30FC305B689847C1
:1046A0002846F4E7D5F8803200F518705B68984723
:1046B0002846E0E7D5F81831FC305B689847284673
:1046C000DFE7BDE838400448FFF77ABDB825002091
:1046D0003828002050290020682A0020F020704748
:1046E0004FF4A07070472920FDF7FAB82820FDF795
:1046F000F7B808B5FDF7C8F8CA20FDF7F1F8C320F0
:10470000FDF7D2F80820FDF7CFF85020FDF7CCF8E0
:10471000CF20FDF7E5F80020FDF7C6F8C120FDF732
:10472000C3F83020FDF7C0F8ED20FDF7D9F864207C
:10473000FDF7BAF80320FDF7B7F81220FDF7B4F83B
:104740008120FDF7B1F8E820FDF7CAF88520FDF7D4
:10475000ABF80020FDF7A8F87820FDF7A5F8CB20EE
:10476000FDF7BEF83920FDF79FF82C20FDF79CF8E7
:104770000020FDF799F83420FDF796F80220FDF7A8
:1047800093F8F720FDF7ACF82020FDF78DF8EA202C
:10479000FDF7A6F80020FDF787F80020FDF784F864
:1047A000B120FDF79DF80020FDF77EF81B20FDF7F6
:1047B0007BF8B620FDF794F80A20FDF775F8A220E3
:1047C000FDF772F8C020FDF78BF81020FDF76CF8AC
:1047D000C120FDF785F81020FDF766F8C520FDF72C
:1047E0007FF84520FDF760F81520FDF75DF8C7203C
:1047F000FDF776F89020FDF757F83620FDF770F8B2
:10480000C820FDF751F8F220FDF76AF80020FDF707
:104810004BF8B020FDF764F8C220FDF745F8B6204C
:10482000FDF75EF80A20FDF73FF8A720FDF73CF8FA
:104830002720FDF739F80420FDF736F82A20FDF788
:104840004FF80020FDF730F80020FDF72DF800208C
:10485000FDF72AF8EF20FDF727F82B20FDF740F8A9
:104860000020FDF721F80020FDF71EF80120FDF7DC
:104870001BF83F20FDF718F8F620FDF731F801206E
:10488000FDF712F80020FDF70FF80620FDF70CF8F1
:104890002C20FDF725F8C820FDF770F82620FDF73D
:1048A0001FF80120FDF700F8E020FDF719F80F20B0
:1048B000FCF7FAFF2920FCF7F7FF2420FCF7F4FFB0
:1048C0000C20FCF7F1FF0E20FCF7EEFF0920FCF7AF
:1048D000EBFF4E20FCF7E8FF7820FCF7E5FF3C20DB
:1048E000FCF7E2FF0920FCF7DFFF1320FCF7DCFFF9
:1048F0000520FCF7D9FF1720FCF7D6FF1120FCF7A5
:10490000D3FF0020FCF7D0FFE120FCF7E9FF0020F7
:10491000FCF7CAFF1620FCF7C7FF1B20FCF7C4FFFB
:104920000420FCF7C1FF1120FCF7BEFF0720FCF7B5
:10493000BBFF3120FCF7B8FF3320FCF7B5FF422066
:10494000FCF7B2FF0520FCF7AFFF0C20FCF7ACFF33
:104950000A20FCF7A9FF2820FCF7A6FF2F20FCF770
:10496000A3FF0F20FCF7A0FF1120FCF7B9FFC82020
:10497000FDF704F82920FCF7B3FFBDE808402C2020
:10498000FCF7AEBF08B5FCF77FFF0321D320FCF78F
:10499000C3FF80B208BD10B5C4B202220321204675
:1049A000FCF728FF0A20FCF76DFF204600220321B8
:1049B000FCF720FFBDE810400220FCF763BF38B5CC
:1049C0000446E4B2FCF714FF00212046FCF72AFF5E
:1049D000012105462046FCF725FF40EA052080B26C
:1049E00038BD10B5C4B240212046FCF71BFF0306BA
:1049F00007D54C212046FCF715FF003818BF0120D1
:104A000010BD01224B212046FCF7F4FE2046002277
:104A10004B21FCF7EFFE0020F2E773B50423C4B28C
:104A20000E461546D7210DEB03022046FCF714FF76
:104A3000019B1BBA1A0DC3F30B23328020462B8037
:104A400001224B21FCF7D6FE00224B212046FCF729
:104A5000D1FE02B070BD000010B50A4A137898422A
:104A600004460DD0517888420AD00BB141B90123D8
:104A7000D454FCF7BDFE2046BDE81040FFF78BBFC5
:104A800010BD00BF982A002010B5C4B209212046ED
:104A9000FCF7C8FE40F00102D2B220460921BDE871
:104AA0001040FCF7A7BE10B5C4B209212046FCF7A0
:104AB000B9FE092100F0FE022046BDE81040FCF7D7
:104AC00099BE38B5C4B20D4620460A21FCF7AAFEAD
:104AD00040EA0502D2B220460A21BDE83840FCF780
:104AE00089BE10B50446FCF784FE20461F21FFF75F
:104AF000E8FF2046BDE81040FFF7C6BF38B5C4B296
:104B00000D4620460A21FCF78DFE20EA0502D2B2AE
:104B100020460A21BDE83840FCF76CBE10B50446BB
:104B2000FFF7C1FF20461F21BDE81040FFF7E6BF99
:104B300010B5C0B20C460B21FCF774FE204010BD2E
:104B40001F21FFF7F5BF0A46C0B20B21FCF752BE8A
:104B50001F21FFF7F8BF38B5C4B20D462046172114
:104B6000FCF760FE20EA0502D2B220461721BDE81C
:104B70003840FCF73FBE70B5C4B20646042120465B
:104B8000FCF750FE042100F0FB0205462046FCF72E
:104B900031FE3046F021FFF7DEFF05F0F802204637
:104BA0000421FCF727FE492220212046FCF722FEA3
:104BB0000220FCF767FE204601222121FCF71AFEA5
:104BC00020469A224121FCF715FE204601224A2167
:104BD000FCF710FE204601224B21FCF70BFE20467D
:104BE00000224B21FCF706FE204601225621FCF74D
:104BF00001FE204601225821FCF7FCFD204601223F
:104C00004021FCF7F7FD2046FF220B21FCF7F2FDC7
:104C1000BDE870400220FCF735BE0000054BD3F81C
:104C2000882042F47002C3F888204FF000629A6036
:104C3000704700BF00ED00E008B50B4B1A6842F466
:104C400000721A601A6842F480621A601A6842F4AC
:104C500080721A60032000F02FF80020FDF7D0F8D2
:104C6000FCF79AFE002008BD003C0240034A044BBA
:104C700011681B780B441360704700BF9C2A00200A
:104C800080000020014B1868704700BF9C2A00205C
:104C900038B50446FFF7F6FF631C1CBF054B1B78B5
:104CA000054618BFE418FFF7EDFF431BA342FAD3F4
:104CB00038BD00BF800000200749CA6822F4E062C6
:104CC0000302120403F4E063120C134343F0BF63C6
:104CD00043F40033CB60704700ED00E0164B30B575
:104CE000DC68C4F30224C4F10703251D042B28BF8C
:104CF0000423062D4FF0FF358CBF033C002405FA3A
:104D000003F321EA0303A54022EA0502A340002899
:104D100043EA0203ACBF00F16040084A4FEA0313C4
:104D2000B8BF00F00F00DBB2AABF00F5614013541A
:104D300080F8003330BD00BF00ED00E014ED00E06E
:104D4000002807DB4109044A00F01F0001238340CB
:104D500042F82130704700BF00E100E010B5044682
:104D600050B1437903F0FF0213B90271FCF734FE2E
:104D700001236371002010BD0120FCE710B504463B
:104D800030B390F8393003F0FF021BB980F83820B7
:104D9000FCF73AFE22686168022384F83930136810
:104DA00023F440330B431360536BA16823F00703D4
:104DB0000B435363136CE16823F47F5323F03F03E9
:104DC0000B43136400200123E06384F8393010BDE5
:104DD0000120FCE770477047036870B55E681D6886
:104DE000F207044614D5E90512D51A6822F4807238
:104DF0001A60C26B42F00102C26301229A6004236E
:104E000080F83930002380F83830436903B198477F
:104E1000B20616D5AB0414D523681A6822F40052E2
:104E20001A6020229A60E36B43F00203E3630423D9
:104E300084F83930002384F8383063690BB1204698
:104E40009847300716D5290514D523681A6822F427
:104E500000621A6008229A60E36B43F00403E36384
:104E6000042384F83930002384F8383063690BB1A7
:104E70002046984772070BD56B0509D523681A6839
:104E800022F480621A6004229A602046FFF7A2FF93
:104E9000B00714D5A90512D523681A6822F4007248
:104EA0001A6002229A60E36BE363012384F83930CD
:104EB000002384F8383023690BB120469847F20666
:104EC00013D5EB0411D523681A6822F480521A60B6
:104ED00010229A60E36BE363012384F839300023E6
:104EE00084F838302046FFF776FF70BDF0B590F8B3
:104EF0003820012A03464FF002002BD0012283F80C
:104F0000382083F8390003EB0112D2E90740556AD3
:104F1000174F44EA0040093C012C9CBF05F07F423A
:104F200010434FEA01161A6888BF40EA056091B93C
:104F3000516A394001435162012C9969916103D84A
:104F4000596A21F07F4191620122002083F83920C3
:104F500083F83800F0BDD16939400143D161991916
:104F6000012C896911619CBF25F07F451562EBE733
:104F7000F0FFFC002DE9F74FDFF8BC916C4A0023ED
:104F80000D6801249C4004EA0506AC4340F0B7805C
:104F90004D68032705F003044FEA430807FA08FCAD
:104FA000671E012F6FEA0C0C34D8876807EA0C0ED5
:104FB000CF6807FA08F747EA0E078760476827EACD
:104FC000060EC5F300179F4047EA0E074760C76803
:104FD00007EA0C0E8F6807FA08F747EA0E07022C5B
:104FE000C76019D14FEAD30A00EB8A0A03F0070B16
:104FF000DAF820704FEA8B0B4FF00F0E0EFA0BFE13
:1050000027EA0E0E0F6907FA0BF747EA0E07CAF8F0
:10501000207001E0032CDAD1076804FA08F407EAEB
:105020000C073C4315F4403F046068D00024019411
:10503000D9F8444044F48044C9F84440D9F8444085
:1050400023F0030707F1804704F4804407F59C37F9
:10505000019403F0030C019CD7F808E04FEA8C0C94
:105060000F2404FA0CF42EEA040E324CA0424DD068
:1050700004F58064A0424BD004F58064A04249D07E
:1050800004F58064A04247D004F58064A04245D076
:1050900004F58064A04243D004F58064A04241D06E
:1050A00004F58064A0423FD004F58064A0423DD066
:1050B00004F58064A04214BF0A24092404FA0CF405
:1050C00044EA0E04BC609468F74315F4801F0CBFDB
:1050D0003C4034439460D46815F4001F0CBF3C403E
:1050E0003443D460546815F4003F0CBF3C40344353
:1050F00054601468ED0354BF3C40344314600133E2
:10510000102B7FF43DAF03B0BDE8F08F0024D5E74E
:105110000124D3E70224D1E70324CFE70424CDE719
:105120000524CBE70624C9E70724C7E70824C5E719
:10513000003C01400000024000380240036919426F
:1051400014BF0120002070470AB181617047090433
:10515000FBE7436901EA030221EA030141EA024154
:105160008161704701684B6913F480634FF000025E
:1051700010D06FF480634B612023026380F83D30D0
:1051800080F83E20036C80F83C2043F00403036465
:1051900001207047184670472DE9F84606460F462D
:1051A00091461D464FEA114A3368BAF1010F0CBF10
:1051B0005C699C6927EA0404A4B2B4FA84F4640923
:1051C000A14501D0002017E06A1CEED0FFF75AFD80
:1051D000089BC01AA84201D8002DE5D10023202247
:1051E000336386F83D2086F83E30326C86F83C30DA
:1051F00042F0200232640120BDE8F8862DE9F0413A
:1052000004460F46164698462568686927EA000056
:1052100080B2C0B16B695A0517D52B6843F400738F
:105220002B606FF480636B6120220023236384F87A
:105230003D2084F83E30236C43F0040323640023B4
:1052400084F83C300120BDE8F081731CDDD0FFF70D
:1052500019FDA0EB0800B04201D8002ED4D10023E4
:105260002022236384F83D2084F83E30236C1343CE
:10527000E4E770B504460D46164623685B691B06D5
:1052800001D500201AE02046FFF76CFFA8B96A1C80
:10529000F3D0FFF7F7FC801BA84201D8002DECD11A
:1052A00000232022236384F83D2084F83E30226CC2
:1052B00084F83C3042F020022264012070BD0000DE
:1052C0002DE9F0431546026885B0DDE90C78994672
:1052D000136843F4807313600E463B46CDF800809C
:1052E00000224FF001110446FFF756FF236838B142
:1052F0001B68DB0502D54FF400732364032620E00E
:1053000006F0FE061E611A4943463A462046FFF75C
:1053100075FFA8B9236803905A6903929B690393A8
:10532000424639462046039BFFF7A3FF064660B17D
:10533000236C042B01BF2268136843F400731360CD
:105340000126304605B0BDE8F083B9F1010F2368AE
:1053500002D1EDB21D61F4E72A0A1A6139464246CC
:105360002046FFF786FF0028E2D12368F1E700BF5F
:10537000020001002DE9FF479A46036815461A68A6
:1053800042F480621A601A68DDE90C7842F4807297
:105390001A600E463B46CDF8008000224FF0011106
:1053A0000446FFF7F9FE236838B11B68DB0544BFEC
:1053B0004FF400732364032021E05FFA86F906F0BE
:1053C000FE061E612B4943463A462046FFF716FF6C
:1053D000A0B9236803905A6903929B6903934246DC
:1053E00039462046039BFFF744FF58B1236C042B3A
:1053F00001BF2268136843F400731360012004B0F6
:10540000BDE8F087BAF1010F23681AD1EDB2424628
:105410001D6139462046FFF72CFF02460028E5D1E2
:1054200021680B6843F480730B602046CDF8008040
:105430003B464FF00111FFF7AFFE226860B11368E1
:10544000B4E72A0A1A61394642462046FFF711FF9F
:105450000028CBD12368D9E749F00103136105493E
:1054600043463A462046FFF7C9FE003818BF0120E0
:10547000C5E700BF0200010070B504460D461646A0
:1054800023685B695B0701D500201AE02046FFF71F
:1054900069FEA8B96A1CF3D0FFF7F4FB801BA84291
:1054A00001D8002DECD100232022236384F83D2075
:1054B00084F83E30226C84F83C3042F020022264B2
:1054C000012070BD70B504460D46164621684B6933
:1054D00013F0400301D0002011E04A69D2060FD535
:1054E0006FF010024A612022236384F83D2084F883
:1054F0003E30236C2364002384F83C30012070BDCF
:10550000FFF7C0FB801BA84201D8002DDED100238D
:105510002022236384F83D2084F83E30236C13431B
:10552000E8E7000070B5044608B9012070BD90F8A6
:105530003D3003F0FF021BB980F83C20FCF786FAEF
:10554000242384F83D3023681A6822F001021A608F
:105550001A6842F400421A601A6822F400421A6083
:1055600000F070FE3F4B65689D4294BF3E4B3F4B41
:1055700098428CBF00230123002BD6D12268394EDC
:1055800051683B4BB0FBF3F321F03F011943B542A7
:10559000516088BF4FF49676116A88BF734321F03B
:1055A0003F0184BF4FF47A76B3FBF6F301330B432C
:1055B0001362D169431E2B4821F44F41854221F0EB
:1055C000FF0132D86D0040F6FC70B3FBF5F30133F8
:1055D000034242D0C3F30B031943D161D4E907302E
:1055E0001168034321F0C0010B4313609168D4E9B3
:1055F000030321F40341034321F0FF010B439360B4
:10560000D4E90530D168034321F0FF010B43D36097
:10561000136843F00103136000202023206484F802
:105620003D30206384F83E0080E7A06850B905EB68
:105630004505B3FBF5F30133C3F30B037BB143F42F
:105640000043C9E719206843B3FBF0F30133C3F308
:105650000B0323B143F44043BEE70423BCE701231B
:10566000BAE700BFA08601007F841E00FF083D004E
:1056700040420F002DE9F743044699460C9E0F4621
:105680009046FFF7FFFA94F83D30202B054603D0F3
:10569000022003B0BDE8F08300903C4919230122A9
:1056A0002046FFF779FD0028F2D194F83C30012B19
:1056B000EED02068012384F83C300368D9075EBF30
:1056C000036843F001030360036823F4006303608D
:1056D000212384F83D30402384F83E3000232364A6
:1056E0000A9B6362BDF82C306385638D2385284B4C
:1056F000E3624246CDE900654B4639462046FFF756
:10570000DFFD00282AD00120C3E7FFF7B2FD40B13A
:10571000236C042B01BF2268136843F400731360E9
:10572000F1E7636A27681A4612F8011B3961626261
:10573000628D218D013A92B262857A69481E80B2EB
:10574000520720850AD548B15A783A61023363621C
:10575000638D013B02399BB221856385238D2A46E7
:1057600031462046002BD0D1FFF786FE0028CFD14E
:105770002268136843F400731360202384F83D30DB
:1057800084F83C0084F83E0083E700BF020010006C
:105790000000FFFF2DE9F043044687B09946109FB3
:1057A0000D469046FFF76EFA94F83D30202B0646E2
:1057B00004D00225284607B0BDE8F0830090764962
:1057C000192301222046FFF7E7FC0028F1D194F8C5
:1057D0003C30012BEDD02068012384F83C30036875
:1057E000DB075EBF036843F001030360036823F433
:1057F00000630360222384F83D30402384F83E3068
:10580000002323640E9B6362BDF83C306385638D87
:105810002385624BE3622946CDE900764B4642463A
:105820002046FFF7A7FD054608B10125C2E7228DF6
:105830002368B2B902905A6902929A690292029A56
:105840001A6842F400721A60DFF85481238D002B2D
:105850002CD1202284F83D2084F83C3084F83E305E
:10586000A8E7012A0AD11A6822F480621A6003901C
:105870005A6903929A690392039AE1E7022A0ED1C8
:105880001A6822F480621A601A6842F400621A6090
:1058900004905A6904929B690493049BD4E7059091
:1058A0005A6905929B690593059BCDE7032B56D852
:1058B000012B15D1324639462046FFF703FE00285A
:1058C000B3D123681A69636A1A70636A0133636229
:1058D000238D013B2385638D013B9BB26385B5E737
:1058E000022B00963B464FF000024146204619D15C
:1058F000FFF752FC002898D123681A6842F400721E
:105900001A601A69636A1A70626A531C6362238D93
:10591000013B2385638D013B9BB2638523681B6933
:105920005370D2E7FFF738FC024600287FF47DAFC2
:105930002368196821F4806119601969636A197014
:10594000636A01336362238D013B2385638D013BD1
:105950009BB26385414600963B462046C8E73246E7
:1059600039462046FFF7AEFD00287FF45EAF23687E
:105970001A69636A1A70626A531C6362238D013B61
:105980002385638D013B9BB2638523685969490771
:105990007FF55CAFC3E700BF020010000000FFFF0F
:1059A0000400010010B590F83D30202BDCB216D178
:1059B000242380F83D3003681A6822F001021A603F
:1059C0005A6A22F010025A625A6A114359621A68DE
:1059D00042F001021A6080F83D40002010BD022014
:1059E000FCE730B590F83D30202BDCB216D10268D0
:1059F000242380F83D30136823F001031360556AB7
:105A00004FF6F0732B400B439BB25362136843F085
:105A10000103136080F83D40002030BD0220FCE708
:105A20000068D1F800C0D201843283182DE9F04318
:105A3000C6685D684C68D1F8189005F470455D60E3
:105A4000C5680CF10107C5F30B45C6F30B463D4491
:105A5000264445EA06455D60C668CD68C6F30A0679
:105A60002E449D6805F470459D60C7688D68C7F336
:105A70000A0701353D4445EA06459D601D690E69EA
:105A800025F007051D614FF0000E1E619D6991F81C
:105A9000327091F83180C3F818E091F8305045EA3F
:105AA000096545EA082545EA07459D615D6925F0D8
:105AB000FF055D614D695D61DD6925F4E06525F0F7
:105AC0000705DD61D1E907573D43DD619D6A4D6AF8
:105AD000C3F828E09D621EB3012E23D0B51E022D0F
